{
  "contractName": "MinimalFoodSupplyChain",
  "abi": [
    {
      "inputs": [],
      "name": "foodItemCount",
      "outputs": [
        {
          "internalType": "uint256",
          "name": "",
          "type": "uint256"
        }
      ],
      "stateMutability": "view",
      "type": "function"
    },
    {
      "inputs": [
        {
          "internalType": "uint256",
          "name": "",
          "type": "uint256"
        }
      ],
      "name": "foodItems",
      "outputs": [
        {
          "internalType": "uint256",
          "name": "id",
          "type": "uint256"
        },
        {
          "internalType": "string",
          "name": "name",
          "type": "string"
        },
        {
          "internalType": "address",
          "name": "owner",
          "type": "address"
        }
      ],
      "stateMutability": "view",
      "type": "function"
    }
  ],
  "bytecode": "0x608060405234801561000f575f80fd5b5061037a8061001d5f395ff3fe608060405234801561000f575f80fd5b5060043610610034575f3560e01c80630ac52e6514610038578063872ce6dc1461006a575b5f80fd5b610052600480360381019061004d919061018f565b610088565b60405161006193929190610292565b60405180910390f35b610072610152565b60405161007f91906102ce565b60405180910390f35b5f602052805f5260405f205f91509050805f0154908060010180546100ac90610314565b80601f01602080910402602001604051908101604052809291908181526020018280546100d890610314565b80156101235780601f106100fa57610100808354040283529160200191610123565b820191905f5260205f20905b81548152906001019060200180831161010657829003601f168201915b505050505090806002015f9054906101000a900473ffffffffffffffffffffffffffffffffffffffff16905083565b60015481565b5f80fd5b5f819050919050565b61016e8161015c565b8114610178575f80fd5b50565b5f8135905061018981610165565b92915050565b5f602082840312156101a4576101a3610158565b5b5f6101b18482850161017b565b91505092915050565b6101c38161015c565b82525050565b5f81519050919050565b5f82825260208201905092915050565b5f5b838110156102005780820151818401526020810190506101e5565b5f8484015250505050565b5f601f19601f8301169050919050565b5f610225826101c9565b61022f81856101d3565b935061023f8185602086016101e3565b6102488161020b565b840191505092915050565b5f73ffffffffffffffffffffffffffffffffffffffff82169050919050565b5f61027c82610253565b9050919050565b61028c81610272565b82525050565b5f6060820190506102a55f8301866101ba565b81810360208301526102b7818561021b565b90506102c66040830184610283565b949350505050565b5f6020820190506102e15f8301846101ba565b92915050565b7f4e487b71000000000000000000000000000000000000000000000000000000005f52602260045260245ffd5b5f600282049050600182168061032b57607f821691505b60208210810361033e5761033d6102e7565b5b5091905056fea26469706673582212202c1c27d960636e8dab93f97c1ea4dca6b4dfa21ef981d61c9ac097ecefc61c7664736f6c63430008150033",
  "immutableReferences": {},
  "source": "// SPDX-License-Identifier: MIT\r\npragma solidity >=0.4.17 <0.9.0;\r\n\r\ncontract MinimalFoodSupplyChain {\r\n    struct FoodItem {\r\n        uint id;\r\n        string name;\r\n        address owner;\r\n    }\r\n\r\n    mapping(uint => FoodItem) public foodItems;\r\n    uint public foodItemCount;\r\n}\r\n",
  "sourcePath": "C:\\Users\\ACER\\first-react-app\\foodsupply\\contracts\\foodsupplychain.sol",
  "compiler": {
    "name": "solc",
    "version": "0.8.21+commit.d9974bed.Emscripten.clang"
  },
  "schemaVersion": "3.4.16",
  "updatedAt": "2024-10-02T05:51:13.691Z",
  "devdoc": {
    "kind": "dev",
    "methods": {},
    "version": 1
  },
  "userdoc": {
    "kind": "user",
    "methods": {},
    "version": 1
  }
}